{
  "_format": "hh-sol-artifact-1",
  "contractName": "BlockCert",
  "sourceName": "contracts/BlockCert.sol",
  "abi": [
    {
      "inputs": [],
      "stateMutability": "nonpayable",
      "type": "constructor"
    },
    {
      "anonymous": false,
      "inputs": [
        {
          "indexed": true,
          "internalType": "string",
          "name": "documentHash",
          "type": "string"
        },
        {
          "indexed": true,
          "internalType": "string",
          "name": "uid",
          "type": "string"
        },
        {
          "indexed": false,
          "internalType": "uint256",
          "name": "timestamp",
          "type": "uint256"
        },
        {
          "indexed": true,
          "internalType": "address",
          "name": "issuer",
          "type": "address"
        },
        {
          "indexed": false,
          "internalType": "string",
          "name": "ipfsCID",
          "type": "string"
        }
      ],
      "name": "CertificateIssued",
      "type": "event"
    },
    {
      "anonymous": false,
      "inputs": [
        {
          "indexed": true,
          "internalType": "string",
          "name": "documentHash",
          "type": "string"
        },
        {
          "indexed": false,
          "internalType": "uint256",
          "name": "timestamp",
          "type": "uint256"
        }
      ],
      "name": "CertificateRevoked",
      "type": "event"
    },
    {
      "inputs": [],
      "name": "admin",
      "outputs": [
        {
          "internalType": "address",
          "name": "",
          "type": "address"
        }
      ],
      "stateMutability": "view",
      "type": "function"
    },
    {
      "inputs": [
        {
          "internalType": "string",
          "name": "_uid",
          "type": "string"
        }
      ],
      "name": "getHashesByUID",
      "outputs": [
        {
          "internalType": "string[]",
          "name": "",
          "type": "string[]"
        }
      ],
      "stateMutability": "view",
      "type": "function"
    },
    {
      "inputs": [
        {
          "internalType": "string",
          "name": "_documentHash",
          "type": "string"
        },
        {
          "internalType": "string",
          "name": "_uid",
          "type": "string"
        },
        {
          "internalType": "string",
          "name": "_ipfsCID",
          "type": "string"
        }
      ],
      "name": "issueCertificate",
      "outputs": [],
      "stateMutability": "nonpayable",
      "type": "function"
    },
    {
      "inputs": [
        {
          "internalType": "string",
          "name": "_documentHash",
          "type": "string"
        }
      ],
      "name": "revokeCertificate",
      "outputs": [],
      "stateMutability": "nonpayable",
      "type": "function"
    },
    {
      "inputs": [
        {
          "internalType": "string",
          "name": "_documentHash",
          "type": "string"
        }
      ],
      "name": "verifyCertificate",
      "outputs": [
        {
          "internalType": "bool",
          "name": "exists",
          "type": "bool"
        },
        {
          "internalType": "bool",
          "name": "isValid",
          "type": "bool"
        },
        {
          "internalType": "uint256",
          "name": "timestamp",
          "type": "uint256"
        },
        {
          "internalType": "address",
          "name": "issuer",
          "type": "address"
        },
        {
          "internalType": "string",
          "name": "uid",
          "type": "string"
        },
        {
          "internalType": "string",
          "name": "ipfsCID",
          "type": "string"
        }
      ],
      "stateMutability": "view",
      "type": "function"
    }
  ],
  "bytecode": "0x608060405234801561001057600080fd5b50336000806101000a81548173ffffffffffffffffffffffffffffffffffffffff021916908373ffffffffffffffffffffffffffffffffffffffff1602179055506113be806100606000396000f3fe608060405234801561001057600080fd5b50600436106100575760003560e01c8063142e15421461005c5780631defa157146100785780638b23d875146100a8578063beec1caa146100dd578063f851a440146100f9575b600080fd5b61007660048036038101906100719190610a9a565b610117565b005b610092600480360381019061008d9190610a9a565b61030b565b60405161009f9190610c24565b60405180910390f35b6100c260048036038101906100bd9190610a9a565b610402565b6040516100d496959493929190610d05565b60405180910390f35b6100f760048036038101906100f29190610d74565b610626565b005b61010161091c565b60405161010e9190610e1b565b60405180910390f35b60008054906101000a900473ffffffffffffffffffffffffffffffffffffffff1673ffffffffffffffffffffffffffffffffffffffff163373ffffffffffffffffffffffffffffffffffffffff16146101a5576040517f08c379a000000000000000000000000000000000000000000000000000000000815260040161019c90610ea8565b60405180910390fd5b6001816040516101b59190610f04565b908152602001604051809103902060000160009054906101000a900460ff16610213576040517f08c379a000000000000000000000000000000000000000000000000000000000815260040161020a90610f67565b60405180910390fd5b6001816040516102239190610f04565b908152602001604051809103902060000160019054906101000a900460ff16610281576040517f08c379a000000000000000000000000000000000000000000000000000000000815260040161027890610fd3565b60405180910390fd5b60006001826040516102939190610f04565b908152602001604051809103902060000160016101000a81548160ff021916908315150217905550806040516102c99190610f04565b60405180910390207f57bf3aad622f3cf905e8c86d1e40e1de99f3ea3a1c14decf97a8671c24fbe557426040516103009190610ff3565b60405180910390a250565b606060028260405161031d9190610f04565b9081526020016040518091039020805480602002602001604051908101604052809291908181526020016000905b828210156103f757838290600052602060002001805461036a9061103d565b80601f01602080910402602001604051908101604052809291908181526020018280546103969061103d565b80156103e35780601f106103b8576101008083540402835291602001916103e3565b820191906000526020600020905b8154815290600101906020018083116103c657829003601f168201915b50505050508152602001906001019061034b565b505050509050919050565b600080600080606080600060018860405161041d9190610f04565b90815260200160405180910390206040518060c00160405290816000820160009054906101000a900460ff161515151581526020016000820160019054906101000a900460ff16151515158152602001600182015481526020016002820160009054906101000a900473ffffffffffffffffffffffffffffffffffffffff1673ffffffffffffffffffffffffffffffffffffffff1673ffffffffffffffffffffffffffffffffffffffff1681526020016003820180546104dc9061103d565b80601f01602080910402602001604051908101604052809291908181526020018280546105089061103d565b80156105555780601f1061052a57610100808354040283529160200191610555565b820191906000526020600020905b81548152906001019060200180831161053857829003601f168201915b5050505050815260200160048201805461056e9061103d565b80601f016020809104026020016040519081016040528092919081815260200182805461059a9061103d565b80156105e75780601f106105bc576101008083540402835291602001916105e7565b820191906000526020600020905b8154815290600101906020018083116105ca57829003601f168201915b5050505050815250509050806000015181602001518260400151836060015184608001518560a001519650965096509650965096505091939550919395565b60008054906101000a900473ffffffffffffffffffffffffffffffffffffffff1673ffffffffffffffffffffffffffffffffffffffff163373ffffffffffffffffffffffffffffffffffffffff16146106b4576040517f08c379a00000000000000000000000000000000000000000000000000000000081526004016106ab90610ea8565b60405180910390fd5b6001836040516106c49190610f04565b908152602001604051809103902060000160009054906101000a900460ff1615610723576040517f08c379a000000000000000000000000000000000000000000000000000000000815260040161071a906110ba565b60405180910390fd5b6040518060c001604052806001151581526020016001151581526020014281526020013373ffffffffffffffffffffffffffffffffffffffff1681526020018381526020018281525060018460405161077c9190610f04565b908152602001604051809103902060008201518160000160006101000a81548160ff02191690831515021790555060208201518160000160016101000a81548160ff0219169083151502179055506040820151816001015560608201518160020160006101000a81548173ffffffffffffffffffffffffffffffffffffffff021916908373ffffffffffffffffffffffffffffffffffffffff16021790555060808201518160030190816108309190611286565b5060a08201518160040190816108469190611286565b5090505060028260405161085a9190610f04565b90815260200160405180910390208390806001815401808255809150506001900390600052602060002001600090919091909150908161089a9190611286565b503373ffffffffffffffffffffffffffffffffffffffff16826040516108c09190610f04565b6040518091039020846040516108d69190610f04565b60405180910390207fc96e9b35a55578ce265c9134df3b7a7a41ad78ad927b94c02b06565fdf5e3993428560405161090f929190611358565b60405180910390a4505050565b60008054906101000a900473ffffffffffffffffffffffffffffffffffffffff1681565b6000604051905090565b600080fd5b600080fd5b600080fd5b600080fd5b6000601f19601f8301169050919050565b7f4e487b7100000000000000000000000000000000000000000000000000000000600052604160045260246000fd5b6109a78261095e565b810181811067ffffffffffffffff821117156109c6576109c561096f565b5b80604052505050565b60006109d9610940565b90506109e5828261099e565b919050565b600067ffffffffffffffff821115610a0557610a0461096f565b5b610a0e8261095e565b9050602081019050919050565b82818337600083830152505050565b6000610a3d610a38846109ea565b6109cf565b905082815260208101848484011115610a5957610a58610959565b5b610a64848285610a1b565b509392505050565b600082601f830112610a8157610a80610954565b5b8135610a91848260208601610a2a565b91505092915050565b600060208284031215610ab057610aaf61094a565b5b600082013567ffffffffffffffff811115610ace57610acd61094f565b5b610ada84828501610a6c565b91505092915050565b600081519050919050565b600082825260208201905092915050565b6000819050602082019050919050565b600081519050919050565b600082825260208201905092915050565b60005b83811015610b49578082015181840152602081019050610b2e565b60008484015250505050565b6000610b6082610b0f565b610b6a8185610b1a565b9350610b7a818560208601610b2b565b610b838161095e565b840191505092915050565b6000610b9a8383610b55565b905092915050565b6000602082019050919050565b6000610bba82610ae3565b610bc48185610aee565b935083602082028501610bd685610aff565b8060005b85811015610c125784840389528151610bf38582610b8e565b9450610bfe83610ba2565b925060208a01995050600181019050610bda565b50829750879550505050505092915050565b60006020820190508181036000830152610c3e8184610baf565b905092915050565b60008115159050919050565b610c5b81610c46565b82525050565b6000819050919050565b610c7481610c61565b82525050565b600073ffffffffffffffffffffffffffffffffffffffff82169050919050565b6000610ca582610c7a565b9050919050565b610cb581610c9a565b82525050565b600082825260208201905092915050565b6000610cd782610b0f565b610ce18185610cbb565b9350610cf1818560208601610b2b565b610cfa8161095e565b840191505092915050565b600060c082019050610d1a6000830189610c52565b610d276020830188610c52565b610d346040830187610c6b565b610d416060830186610cac565b8181036080830152610d538185610ccc565b905081810360a0830152610d678184610ccc565b9050979650505050505050565b600080600060608486031215610d8d57610d8c61094a565b5b600084013567ffffffffffffffff811115610dab57610daa61094f565b5b610db786828701610a6c565b935050602084013567ffffffffffffffff811115610dd857610dd761094f565b5b610de486828701610a6c565b925050604084013567ffffffffffffffff811115610e0557610e0461094f565b5b610e1186828701610a6c565b9150509250925092565b6000602082019050610e306000830184610cac565b92915050565b7f4f6e6c792061646d696e2063616e20706572666f726d2074686973206163746960008201527f6f6e000000000000000000000000000000000000000000000000000000000000602082015250565b6000610e92602283610cbb565b9150610e9d82610e36565b604082019050919050565b60006020820190508181036000830152610ec181610e85565b9050919050565b600081905092915050565b6000610ede82610b0f565b610ee88185610ec8565b9350610ef8818560208601610b2b565b80840191505092915050565b6000610f108284610ed3565b915081905092915050565b7f436572746966696361746520646f6573206e6f74206578697374000000000000600082015250565b6000610f51601a83610cbb565b9150610f5c82610f1b565b602082019050919050565b60006020820190508181036000830152610f8081610f44565b9050919050565b7f436572746966696361746520616c7265616479207265766f6b65640000000000600082015250565b6000610fbd601b83610cbb565b9150610fc882610f87565b602082019050919050565b60006020820190508181036000830152610fec81610fb0565b9050919050565b60006020820190506110086000830184610c6b565b92915050565b7f4e487b7100000000000000000000000000000000000000000000000000000000600052602260045260246000fd5b6000600282049050600182168061105557607f821691505b6020821081036110685761106761100e565b5b50919050565b7f436572746966696361746520616c726561647920657869737473000000000000600082015250565b60006110a4601a83610cbb565b91506110af8261106e565b602082019050919050565b600060208201905081810360008301526110d381611097565b9050919050565b60008190508160005260206000209050919050565b60006020601f8301049050919050565b600082821b905092915050565b60006008830261113c7fffffffffffffffffffffffffffffffffffffffffffffffffffffffffffffffff826110ff565b61114686836110ff565b95508019841693508086168417925050509392505050565b6000819050919050565b600061118361117e61117984610c61565b61115e565b610c61565b9050919050565b6000819050919050565b61119d83611168565b6111b16111a98261118a565b84845461110c565b825550505050565b600090565b6111c66111b9565b6111d1818484611194565b505050565b5b818110156111f5576111ea6000826111be565b6001810190506111d7565b5050565b601f82111561123a5761120b816110da565b611214846110ef565b81016020851015611223578190505b61123761122f856110ef565b8301826111d6565b50505b505050565b600082821c905092915050565b600061125d6000198460080261123f565b1980831691505092915050565b6000611276838361124c565b9150826002028217905092915050565b61128f82610b0f565b67ffffffffffffffff8111156112a8576112a761096f565b5b6112b2825461103d565b6112bd8282856111f9565b600060209050601f8311600181146112f057600084156112de578287015190505b6112e8858261126a565b865550611350565b601f1984166112fe866110da565b60005b8281101561132657848901518255600182019150602085019450602081019050611301565b86831015611343578489015161133f601f89168261124c565b8355505b6001600288020188555050505b505050505050565b600060408201905061136d6000830185610c6b565b818103602083015261137f8184610ccc565b9050939250505056fea2646970667358221220aceec9931f7021e8974c71a385e3bfbe386367fd4c54795552c5c25cab6c9eb064736f6c63430008180033",
  "linkReferences": {},
  "deployedLinkReferences": {}
}